:020000000328D3
:100006000730831203139F0083168601831286012D
:1000160003308316850083120518322806148610CD
:100026000630FB001330FC00AD30FD00FD0B192837
:10003600FC0B1928FB0B192800000000061086147B
:100046000630FB001330FC00AD30FD00FD0B292807
:10005600FC0B2928FB0B2928000000001128851815
:100066005528061486140630FB001330FC00AD300C
:10007600FD00FD0B3C28FC0B3C28FB0B3C2800003C
:100086000000061086100630FB001330FC00AD3071
:10009600FD00FD0B4C28FC0B4C28FB0B4C280000EC
:0800A600000034280E28562842
:02400E006A2125
:00000001FF
