:020000008D2849
:10000600831203132230FC00F801F901FA01FB0107
:10001600FC03031939280310FB0CFA0CF90CF80C35
:10002600F30CF20CF10CF00C031C0B28FC03031967
:100036002B287408F80775080318750FF907760852
:100046000318760FFA0777080318770FFB070F28B0
:100056007408F80775080318750FF907760803186A
:0E006600760FFA0777080318770FFB070800DC
:10007400831203132908A2002A08A300A401A501DE
:060084000130A600080097
:10008A00831203132608031D4F280130A9000030EC
:10009A00AA003A202208F0002308F1002408F200FE
:1000AA002508F3006D30F4004E30F500C630F60036
:1000BA004130F70003203930F5003030F600F701FF
:1000CA00F8017008F50771080318710FF60772082E
:1000DA000318720FF70773080318730FF8077708E6
:1000EA00F0007808F1000030F81BFF30F200F3004E
:1000FA00FF30F0057F30F1050030F205F305700896
:10010A00A2007108A3007208A4007308A5000800E1
:10011A00033083160313850045207008A700710871
:10012A00A80070189A2805119B28051505199F28FB
:10013A008515A0288511051DAF280518A5280511C4
:10014A00B630FC00D030FD00FD0BA928FC0BA92815
:10015A000000A028851DBE288518B4288511B63050
:10016A00FC00D030FD00FD0BB828FC0BB8280000BD
:10017A00AF28B630FC00D030FD00FD0BC228FC0BC6
:08018A00C22800009128C828DA
:02400E006A2125
:00000001FF
